:0400000007EF00F016
:100008005482D7ED02F0ECEF03F0176EF29E38C57C
:1000180001F039C502F0000E046EC70E036E15EC30
:1000280004F0060E0126000E02228C0E0124D96E61
:10003800000E0220DA6E17C0DFFF000E196E000EE8
:10004800186EE050116E126A38C501F039C502F019
:10005800000E046EC70E036E15EC04F0C30E0126E5
:10006800000E02228C0E0124D96E000E0220DA6ED8
:1000780011C0DEFF12C0DDFF116E126A38C501F033
:1000880039C502F0000E046EC70E036E15EC04F0BD
:10009800C50E0126000E02228C0E0124D96E000E18
:1000A8000220DA6E11C0DEFF12C0DDFF92D0FE50D2
:1000B800116E126A38C501F039C502F0000E046EDF
:1000C800C70E036E15EC04F0070E0126000E02227F
:1000D8008C0E136E000E146E01501326025014225B
:1000E80018C001F019C002F0000E046E060E036E6F
:1000F80015EC04F00150132602501422040E1324A8
:10010800D96E000E1420DA6E11C0DEFF12C0DDFFBA
:10011800FD50116E126A38C501F039C502F0000EA3
:10012800046EC70E036E15EC04F0070E0126000ED0
:1001380002228C0E136E000E146E0150132602500C
:10014800142218C001F019C002F0000E046E060E49
:10015800036E15EC04F00150132602501422020E0F
:100168001324D96E000E1420DA6E11C0DEFF12C0FF
:10017800DDFFFF50116E126A38C501F039C502F073
:10018800000E046EC70E036E15EC04F0070E012670
:10019800000E02228C0E136E000E146E01501326F0
:1001A8000250142218C001F019C002F0000E046EAB
:1001B800060E036E15EC04F001501324D96E02509C
:1001C8001420DA6E11C0DEFF12C0DDFF0600184AE7
:1001D800192AFC50D8A46BD738C501F039C502F0EC
:1001E800000E046EC70E036E15EC04F0C10E012656
:1001F800000E02228C0E0124D96E000E0220DA6E47
:1002080018C0DEFF19C0DDFF31EC03F007C015F0A0
:1002180008C016F015C038F516C039F538C501F014
:1002280039C502F0000E046EC70E036E15EC04F01B
:10023800C10E0126000E02228C0E0124D96E000E7A
:100248000220DA6EDECF11F0DDCF12F0FF0E11249E
:10025800186EFF0E1220196E38C501F039C502F06C
:10026800000E046EC70E036E15EC04F0C30E0126D3
:10027800000E02228C0E0124D96E000E0220DA6EC6
:10028800DF50E06E38C501F039C502F0000E046E8B
:10029800C70E036E15EC04F0C50E0126000E0222EF
:1002A8008C0E0124D96E000E0220DA6EDF50116E1A
:1002B8001150000EFC6E84D0050038C501F039C518
:1002C80002F0000E046EC70E036E15EC04F0070E64
:1002D8000126000E02228C0E116E000E126E0150C5
:1002E80011260250122218C001F019C002F0000EA7
:1002F800046E060E036E15EC04F001501126025030
:100308001222040E1124D96E000E1220DA6EDF506C
:10031800FE6E38C501F039C502F0000E046EC70E36
:10032800036E15EC04F0070E0126000E02228C0E57
:10033800116E000E126E015011260250122218C0C2
:1003480001F019C002F0000E046E060E036E15ECE3
:1003580004F00150112602501222020E1124D96E07
:10036800000E1220DA6EDF50FD6E38C501F039C577
:1003780002F0000E046EC70E036E15EC04F0070EB3
:100388000126000E02228C0E116E000E126E015014
:1003980011260250122218C001F019C002F0000EF6
:1003A800046E060E036E15EC04F001501124D96E8C
:1003B80002501220DA6EDF50FF6E1806D8A0190618
:1003C80018501910D8A478D7F28E120036C580F0CC
:1003D80037C581F0000E0001836FC70E826F01ECF4
:1003E80004F08C0E00018025D96E000E8121DA6E92
:1003F80086C0DEFF87C0DDFF36C580F037C581F0D7
:10040800000E836FC70E826F01EC04F0020E00012C
:100418008027000E81238C0E8025D96E000E812145
:10042800DA6E88C0DEFF89C0DDFF36C580F037C5CB
:1004380081F0000E836FC70E826F01EC04F0060E88
:1004480000018027000E81238C0E8025D96E000EB6
:100458008121DA6E000EDF6E36C580F037C581F077
:10046800000E836FC70E826F01EC04F0040E0001CA
:100478008027000E81238C0E8025D96E000E8121E5
:10048800DA6E8AC0DEFF8BC0DDFF36C580F037C567
:1004980081F0000E836FC70E826F01EC04F0C10E6D
:1004A80000018027000E81238C0E8025D96E000E56
:1004B8008121DA6E000EDE6E000EDD6E25EE36F05E
:1004C800DE2A000EDD221200000EE8CF36F5000EFF
:1004D800E8CF37F5000E416E000E406E36C580F04D
:1004E80037C581F0000E0001836FC70E826F01ECE3
:1004F80004F08C0E00018025D96E000E8121DA6E81
:10050800000EDE6E000EDD6E36C580F037C581F058
:10051800000E836FC70E826F01EC04F0020E00011B
:100528008027000E81238C0E8025D96E000E812134
:10053800DA6E000EDE6E000EDD6E36C580F037C551
:1005480081F0000E836FC70E826F01EC04F0060E77
:1005580000018027000E81238C0E8025D96E000EA5
:100568008121DA6E000EDF6E36C580F037C581F066
:10057800000E836FC70E826F01EC04F0040E0001B9
:100588008027000E81238C0E8025D96E000E8121D4
:10059800DA6E000EDE6E000EDD6E25EE36F0DE2A17
:1005A800000EDD2212000600FACF1AF0FBCF1BF076
:1005B800E9CF1CF0EACF1DF0E1CF1EF0E2CF1FF02B
:1005C800D9CF20F0DACF21F0F3CF22F0F4CF23F007
:1005D800F6CF24F0F7CF25F0F8CF26F0F5CF27F0A7
:1005E80054C028F055C029F056C02AF057C02BF047
:1005F800F294424A432A040E42184310D8A407D062
:10060800000E436E000E426E000E09EC00F02BC087
:1006180057F02AC056F029C055F028C054F027C01A
:10062800F5FF26C0F8FF25C0F7FF24C0F6FF23C05A
:10063800F4FF22C0F3FF21C0DAFF20C0D9FF1FC09A
:10064800E2FF1EC0E1FF1DC0EAFF1CC0E9FF1BC09E
:10065800FBFF1AC0FAFF5492110036C50FF037C5D8
:1006680010F025EE38F0DECF09F0DDCF0AF0010EEC
:100678000924016E000E0A20026E25EE36F0DECF48
:100688000BF0DDCF0CF0010E0B24036E000E0C20D6
:10069800046EADEC03F001C00DF002C00EF00F06C1
:1006A800D8A010060DC001F00EC002F0000E046EB6
:1006B800C70E036E15EC04F0060E0126000E02228A
:1006C8008C0E0124D96E000E0220DA6EDF50D8B4E9
:1006D80004D00F501010D8A4C4D70F501010D8B49D
:1006E80005D00DC007F00EC008F01200000E086E0D
:1006F800010E076E120068EC02F028EC04F0440EBC
:100708000001806F000E816F000E836F010E826FF3
:10071800CEEC03F0000E0001876F010E866F000E0D
:10072800896F0A0E886F000E8A6F000E8B6FEAECD5
:1007380001F0000E0001876F020E866F000E896FB0
:100748000A0E886F000E8A6F000E8B6FEAEC01F0BC
:10075800FFD703500410D8B418D0010E056E04D08A
:10076800D89003360436052A04AEFAD70350015C44
:1007780004500258D8A004D00350015E0450025A15
:10078800D89004320332052EF1D701C001F002C01F
:1007980002F0120080C0D9FF81C0DAFF82C0DEFFFC
:1007A80083C0DDFF000120EE0CF08051D926815175
:1007B800DA22000EDE6E000EDD6E20EE0EF08051A5
:1007C800D9268151DA22000EDE6E000EDD6E12008F
:1007D80000EE8CF014EEAEF0EE6AE550E150FCE16C
:1007E800E250FAE100EE2CF0280EEE6AE806FDE190
:1007F8005490549200017FEF03F00001805182036E
:10080800F3CF84F0F4CF85F080518303F35085272C
:1008180081518203F350852784C080F085C081F020
:10082800120001500302F3CF05F0F4CF06F0015097
:100838000402F350062602500302F350062605C0B0
:1008480001F006C002F01200F28AF294F28ED59AF4
:10085800D596D580D582D584FC0ED66ED58E12005D
:020000040020DA
:08000000FFFFFFFFFFFFFFFF00
:020000040030CA
:0E000000FF071F1FFF8385FF0FC00FE00F409B
:00000001FF
